:020000020000FC
:100000000FEF0DBF08E00EBF52985A9A53985B9AB3
:10001000209A219A229A239A289829982A982B98EC
:100020000027112722270E941A000E942C000E94FC
:100030005400F9CF4A990EC010FD089511600E9436
:1000400054004A9907C00395003108F000270E9428
:100050003E0008951E7F08954B990EC020FD08951F
:1000600021600E9454004B9907C00A950F3F09F484
:100070000FE00E943E0008952E7F0895402F40FB20
:1000800016F0289801C0289A41FB16F0299801C063
:10009000299A42FB16F02A9801C02A9A43FB16F0CF
:1000A0002B9808952B9A089550EA65E86A95F1F720
:0600B0005A95D9F70895EE
:00000001FF
