:020000020000FC
:0200000003C13A
:0200100084C2A8
:02002C0070C2A0
:100200000FEF0DBF08E00EBFF8943898409A399868
:10021000419A3A98429A3B98439A3C98449A249A35
:100220002C98529A5A98539A5B98549A5C98559A7B
:100230005D98569A5E98579A5F98209A2898219AC6
:100240002998229A2A98239A2B983D9A459800E05B
:100250000093000100930101009302010093030148
:1002600000930A0100930B0100930C0100930D0110
:1002700000930E0100930F0106B100931001B7D057
:10028000C3D000E0009380000DE0009381000DE3F7
:100290000093890008E00093880000E00093850047
:1002A0000093840002E000936F0012E01093680056
:1002B0001FE110936C0078940DD100910F01013073
:1002C00061F400E000930F0100910A0103950530ED
:1002D00008F000E000930A0116D100910A010030F5
:1002E00049F0013041F0023039F0033031F0043090
:1002F00029F0E2CF04C035C035C077C077C000E038
:1003000000930B0100930C0100930D0100930E016B
:1003100000910301013081F600E000930301009198
:10032000020103950C33D0F000E00093020100912C
:10033000010103950C3370F000E00093010100917E
:1003400000010395083108F000E0009300015CD043
:100350004ED0B2CF009301014AD0AECF009302013C
:10036000ABCFAACF00910B01013061F400E0009304
:100370000B01009100010395083108F000E00093A3
:10038000000142D000910C01013069F400E00093BB
:100390000C0100910001003011F407E101C00A9541
:1003A0000093000131D000910D01013061F400E0B3
:1003B00000930D010091010103950C3308F000E05A
:1003C0000093010114D000910E01013069F400E0A6
:1003D00000930E0100910101003011F40BE301C004
:1003E0000A950093010103D067CF66CF65CF0091D6
:1003F000010111270A3018F00A501395FBCF109312
:1004000006010093070108950091000111270A30A9
:1004100018F00A501395FBCF1093080100930901BF
:1004200008952C985A985B985C985D985E985F98B0
:100430000895F7DF003099F00130C1F00230C9F0C3
:100440000330E9F0043009F1053021F1063041F1C3
:10045000073069F1083079F10930A9F108952C9A33
:100460005A9A5B9A5C9A5D9A5E9A08955A9A5B9A38
:1004700008952C9A5A9A5C9A5D9A5F9A08952C9ADC
:100480005A9A5B9A5C9A5F9A08955A9A5B9A5E9A16
:100490005F9A08952C9A5B9A5C9A5E9A5F9A089587
:1004A0002C9A5B9A5C9A5D9A5E9A5F9A08952C9A50
:1004B0005A9A5B9A08952C9A5A9A5B9A5C9A5D9A1A
:1004C0005E9A5F9A08952C9A5A9A5B9A5C9A5E9A01
:1004D0005F9A089500910801ACDF289A14D02898FB
:1004E00000910901A6DF299A0ED0299800910601F2
:1004F000A0DF2A9A08D02A98009107019ADF2B9A48
:1005000002D02B98089548EC4A95F1F708950F937F
:1005100001E0009303010F9118950F931F932F9300
:100520003F9306B110911001202F21270093100155
:1005300031E024FF03C004FF30930F0120FF03C00C
:1005400000FF30930B0121FF03C001FF30930C012A
:1005500022FF03C002FF30930D0123FF03C003FFFE
:0E05600030930E013F912F911F910F9118952E
:00000001FF
