:020000020000FC
:0200000003C13A
:020010002DC4FD
:02002C0019C4F5
:0200380043C4BF
:100200000FEF0DBF08E00EBFF8943898409A399868
:10021000419A3A98429A3B98439A3C98449A249A35
:100220002C98529A5A98539A5B98549A5C98559A7B
:100230005D98569A5E98579A5F98209A2898219AC6
:100240002998229A2A98239A2B98259A2D983D9A94
:10025000459800E000930001009301010093020122
:100260000093030100930A0101E00093110101E0F2
:1002700000931201E2D1EED100E000930B01009354
:100280000C0100930D0100930E0100930F0106B1C4
:100290000093100142D14ED100E00093170100936A
:1002A000180100931D018BD297D200E000931E012C
:1002B00002E004BD05E005BD0CE907BD02E00093C6
:1002C0006E0000E0009380000DE0009381000DE3DC
:1002D0000093890008E00093880000E00093850007
:1002E0000093840002E000936F0012E01093680016
:1002F0001FE110936C00789400910F01013061F4BC
:1003000000E000930F0100910A010395053008F009
:1003100000E000930A018DD100910A01003049F0FC
:10032000013041F0023039F0033031F0043029F06F
:10033000E3CF04C03AC03BC07EC0A8C061D100E09A
:1003400000930B0100930C0100930D0100930E012B
:1003500000910301013081F600E000930301009158
:10036000020103950C33E8F000E0009302010091D4
:10037000010103950C3380F000E00093010100912E
:1003800000010395083110F000E0EAD1009300016C
:10039000D1D0C3D051D2B0CF00930101BED04CD246
:1003A000ABCF0093020148D2A7CF61D1A5CF28D10E
:1003B00000910B01013061F400E000930B0100910A
:1003C00000010395083108F000E000930001B2D06D
:1003D00000910C01013069F400E000930C010091E0
:1003E0000001003011F407E101C00A9500930001FB
:1003F000A1D000910D01013061F400E000930D01E6
:100400000091010103950C3308F000E00093010115
:1004100084D000910E01013069F400E000930E01D8
:1004200000910101003011F40BE301C00A95009323
:10043000010173D061CF1BD100910B01013029F470
:1004400000E000930B014DD1F8D000910C01013078
:1004500029F400E000930C0159D1EFD000910D0177
:10046000013039F400E000930D0163D12DD1F2D0B9
:10047000E4D000910E01013039F400E000930E0148
:1004800063D122D1E7D0D9D037CF36CFB2D101E076
:1004900000931D0100910B01013061F400E0009315
:1004A0000B01009117010395083108F000E000935B
:1004B000170185D100910C01013069F400E000932F
:1004C0000C0100911701003011F407E101C00A95F9
:1004D0000093170174D100910D01013061F400E027
:1004E00000930D010091180103950C3308F000E012
:1004F0000093180171D100910E01013069F400E000
:1005000000930E0100911801003011F40BE301C0BB
:100510000A950093180160D1EFCE009101011127D7
:100520000A3018F00A501395FBCF10930601009380
:10053000070108950091000111270A3018F00A50B0
:100540001395FBCF109308010093090108952C988F
:100550005A985B985C985D985E985F980895F7DF6D
:10056000003099F00130C1F00230C9F00330E9F0F9
:10057000043009F1053021F1063041F1073069F10D
:10058000083079F10930A9F108952C9A5A9A5B9AAA
:100590005C9A5D9A5E9A08955A9A5B9A08952C9A8D
:1005A0005A9A5C9A5D9A5F9A08952C9A5A9A5B9A25
:1005B0005C9A5F9A08955A9A5B9A5E9A5F9A089538
:1005C0002C9A5B9A5C9A5E9A5F9A08952C9A5B9A31
:1005D0005C9A5D9A5E9A5F9A08952C9A5A9A5B9AF1
:1005E00008952C9A5A9A5B9A5C9A5D9A5E9A5F9AE1
:1005F00008952C9A5A9A5B9A5C9A5E9A5F9A08952B
:1006000000910801ACDF289A14D0289800910901C4
:10061000A6DF299A0ED0299800910601A0DF2A9A18
:1006200008D02A98009107019ADF2B9A02D02B98C4
:10063000089548EC4A95F1F70895009111011127AA
:100640000A3018F00A501395FBCF10931301009352
:10065000140108950091120111270A3018F00A5070
:100660001395FBCF10931501009316010895009187
:10067000130175DF289ADDDF2898009114016FDFE0
:10068000299AD7DF29980091150169DF2A9AD1DFCD
:100690002A980091160163DF2B9ACBDF2B980895DF
:1006A0000F93009112012FE1023049F0043049F01C
:1006B000063039F0093029F00B3019F003C02CE175
:1006C00001C02EE10F9108950F932F93E9DF009160
:1006D0001101021718F011F0209311012F910F91C1
:1006E00008950F932F93DCDF0091110103950217FA
:1006F00040F039F001E0009311011BD02F910F91D0
:100700000895009311012F910F9108950F932F9346
:1007100000911101013039F417D0C2DF209311018B
:100720002F910F9108950A95009311012F910F9128
:1007300008950F930091120103950D3008F001E028
:10074000009312010F9108950F930091120101304F
:1007500011F40CE001C00A95009312010F91089565
:100760000F931F932F930091110103950093110193
:10077000109112012FE1123049F0143049F0163077
:1007800039F0193029F01B3019F003C02CE101C0F9
:100790002EE100911101201708F00BC001E0009339
:1007A00011010091120103950D3008F001E0009352
:1007B000120143DF4FDF2F911F910F910895009198
:1007C000170111270A3018F00A501395FBCF109328
:1007D000190100931A0108950091180111270A3098
:1007E00018F00A501395FBCF10931B0100931C01C6
:1007F000089500911E01093130F0A9DE289829984A
:100800002A982B98089500911901A9DE289A11DFE2
:10081000289800911A01A3DE299A0BDF29980091EC
:100820001B019DDE2A9A05DF2A9800911C0197DEA4
:100830002B9AFFDE2B98089500911D01013071F471
:100840000091000110911701011741F4009101017D
:1008500010911801011711F42D9A08952D980895FB
:100860000F9301E0009303010F9118950F931F93CD
:100870002F933F9306B110911001202F2127009351
:10088000100131E024FF03C004FF30930F0120FF6B
:1008900003C000FF30930B0121FF03C001FF309321
:1008A0000C0122FF03C002FF30930D0123FF03C0A0
:1008B00003FF30930E013F912F911F910F911895D7
:1008C0000F930FB70F931F9300911E010395009391
:1008D0001E01023340F000E000931E01459902C062
:1008E000459A01C045981F910F910FBF0F91189520
:00000001FF
