:020000020000FC
:100000003F0006005B004F0066006D007D000700AA
:100010007F006F0077007C0039005E00790071007E
:100020000FEF0DBF08E00EBF0FEF0AB90FE107B9E0
:1000300000E004B903E005B90027442720E024BD0F
:1000400025BD25E025BD21E025BB00E00093C100D2
:100050001DD043954F7058B1507F542B58B913B1F0
:100060001370123019F0113049F0F2CF13B1137040
:100070001330E1F703950F7014D0EACF13B113706A
:100080001330E1F70A950F700CD0E2CF21E025BBC9
:1000900036E025B320FFFDCF21E025BB3A95C9F717
:1000A0000895F0E0E0E0E00FF11D24912BB90895F0
:00000001FF
