:020000020000FC
:020000001CC022
:0200040060C0DA
:0200080063C0D3
:1000380050C00FEF0DBF08E00EBFF8943C9A449AE9
:1000480000E00AB90CE00BB90FE007B9002708B9BE
:100058000FEF04B915E01093690013E01CBB13E01F
:100068001DBB00270093000100930101222723D024
:1000780050E056BD5BE957BD52E054BD55E055BD53
:1000880052E050936E0052E055BB789440910001C5
:10009800442331F044274093000123952F700BD05F
:1000A80040910101442331F04427409301012A95EE
:1000B8002F7001D0EBCF322F3F7038B90895349AA2
:1000C80001E0009300011895349A01E000930101C2
:0400D80018951895CA
:00000001FF
