:020000020000FC
:100000003F0006005B004F0066006D007D000700AA
:100010007F006F0077007C0039005E00790071007E
:1000200005C00FEF0DBF08E00EBF0895FADF1124E1
:100030000FEF0AB90FE107B900E004B903E005B911
:100040000027442720E024BD25BD25E025BD21E073
:1000500025BB00E00093C10020D043954F70042FD2
:1000600027D058B1507F542B58B913B113701230A8
:1000700019F0113051F0F0CF13B113701330E1F7D4
:1000800058B120E1522758B9E7CF13B1137013309C
:10009000E1F758B15F7E58B9DFCF21E025BB36E0EC
:1000A00025B320FFFDCF21E025BB3A95C9F7089580
:0E00B000F0E0E0E0E00FF11D24912BB908957F
:00000001FF
