:020000020000FC
:0200000037C007
:02000400A0C09A
:02000800A8C08E
:100068000FEF0DBF08E00EBFF1E0EEE602E004BDC1
:100078000CE907BD05E005BD52985A9A53985B9A5A
:10008800389A4098399A41983A9A42983B9A4398B4
:100098000AE00093690003E00DBB0027112722271F
:1000A80033274427552778940E945D000E946600F4
:1000B800FBCF05B301FF0895A99A13951436A0F351
:1000C800112708951F93313091F44A9B10C023954E
:1000D8002F3008F02227332710E04A9904C0123342
:1000E80011F01395FACF0F9303E00DBB0F91413038
:1000F800A1F44B9B12C0203011F42FE001C02A95C7
:10010800442710E04B9904C0123311F01395FACF2D
:100118000F9303E00DBB0F911F91522F50FD409A92
:1001280050FF409851FD419A51FF419852FD429A23
:1001380052FF429853FD439A53FF439808950F93F3
:100148000FB70F9331E002E00DBB0F910FBF0F9176
:1001580018950F930FB70F9341E001E00DBB0F9176
:100168000FBF0F9118953F0006005B004F00660017
:100178006D007D0007007F00670077007C00390074
:060188005E007900710029
:00000001FF
